:020000040800F2
:100000000050002075210008F5190008FD190008AE
:10001000051A00080D1A0008151A00080000000053
:100020000000000000000000000000001D1A000891
:10003000291A000800000000351A0008411A0008BB
:10004000BD210008BD210008BD210008BD21000818
:10005000BD210008BD210008BD210008BD21000808
:10006000BD210008BD210008BD210008BD210008F8
:10007000BD210008BD210008BD210008BD210008E8
:10008000BD210008BD210008BD210008BD210008D8
:10009000BD210008BD210008BD210008BD210008C8
:1000A000BD210008BD210008BD210008BD210008B8
:1000B000BD210008BD2100084D1A0008BD2100081F
:1000C000BD210008BD210008BD210008BD21000898
:1000D000BD210008BD210008611A0008BD210008EB
:1000E000BD210008BD210008BD210008000000005E
:1000F0000000000000000000000000000000000000
:0C01000000000000000000005FF808F1A3
:1001100010B5054C237833B9044B13B10448AFF341
:1001200000800123237010BD0002002000000000A9
:10013000B0C7000808B5034B1BB103490348AFF330
:10014000008008BD0000000004020020B0C70008C5
:10015000034613F8012B002AFBD1181A0138704707
:1001600081F0004102E000BF83F0004330B54FEA68
:1001700041044FEA430594EA050F08BF90EA020FD5
:100180001FBF54EA000C55EA020C7FEA645C7FEA68
:10019000655C00F0E2804FEA5454D4EB5555B8BF8B
:1001A0006D420CDD2C4480EA020281EA030382EAFC
:1001B000000083EA010180EA020281EA0303362D8E
:1001C00088BF30BD11F0004F4FEA01314FF4801C61
:1001D0004CEA113102D0404261EB410113F0004F73
:1001E0004FEA03334CEA133302D0524263EB43032A
:1001F00094EA050F00F0A780A4F10104D5F1200EC8
:100200000DDB02FA0EFC22FA05F2801841F1000122
:1002100003FA0EF2801843FA05F359410EE0A5F1F6
:1002200020050EF1200E012A03FA0EFC28BF4CF027
:10023000020C43FA05F3C01851EBE37101F00045DD
:1002400007D54FF0000EDCF1000C7EEB00006EEBEA
:100250000101B1F5801F1BD3B1F5001F0CD3490874
:100260005FEA30004FEA3C0C04F101044FEA4452CB
:1002700012F5800F80F09A80BCF1004F08BF5FEA52
:10028000500C50F1000041EB045141EA050130BD32
:100290005FEA4C0C404141EB0101013C28BFB1F544
:1002A000801FE9D291F0000F04BF01460020B1FA8F
:1002B00081F308BF2033A3F10B03B3F120020CDA62
:1002C0000C3208DD02F1140CC2F10C0201FA0CF040
:1002D00021FA02F10CE002F11402D8BFC2F1200CA5
:1002E00001FA02F120FA0CFCDCBF41EA0C0190405B
:1002F000E41AA2BF01EB0451294330BD6FEA0404A4
:100300001F3C1CDA0C340EDC04F11404C4F120028E
:1003100020FA04F001FA02F340EA030021FA04F3A0
:1003200045EA030130BDC4F10C04C4F1200220FAF7
:1003300002F001FA04F340EA0300294630BD21FA35
:1003400004F0294630BD94F0000F83F4801306BFFB
:1003500081F480110134013D4EE77FEA645C18BFEF
:100360007FEA655C29D094EA050F08BF90EA020F86
:1003700005D054EA000C04BF1946104630BD91EA7E
:10038000030F1EBF0021002030BD5FEA545C05D181
:100390004000494128BF41F0004130BD14F58004C0
:1003A0003CBF01F5801130BD01F0004545F0FE4134
:1003B00041F470014FF0000030BD7FEA645C1ABF69
:1003C000194610467FEA655C1CBF0B46024650EAA0
:1003D000013406BF52EA033591EA030F41F40021CC
:1003E00030BD00BF90F0000F04BF0021704730B552
:1003F0004FF4806404F132044FF000054FF0000127
:1004000050E700BF90F0000F04BF0021704730B5E7
:100410004FF4806404F1320410F0004548BF4042BC
:100420004FF000013EE700BF42004FEAE2014FEA11
:1004300031014FEA02701FBF12F07F4393F07F4FEC
:1004400081F06051704732F07F4208BF704793F0EF
:100450007F4F04BF41F40021704730B54FF4607402
:1004600001F0004521F000411CE700BF50EA010205
:1004700008BF704730B54FF000050AE050EA0102AE
:1004800008BF704730B511F0004502D5404261EB1E
:1004900041014FF4806404F132045FEA915C3FF45F
:1004A000D8AE4FF003025FEADC0C18BF03325FEAFC
:1004B000DC0C18BF033202EBDC02C2F1200300FAAD
:1004C00003FC20FA02F001FA03FE40EA0E0021FAD2
:1004D00002F11444BDE600BF70B54FF0FF0C4CF4C0
:1004E000E06C1CEA11541DBF1CEA135594EA0C0F72
:1004F00095EA0C0F00F0DEF82C4481EA030621EAAD
:100500004C5123EA4C5350EA013518BF52EA0335E7
:1005100041F4801143F4801338D0A0FB02CE4FF099
:100520000005E1FB02E506F00042E0FB03E54FF0C9
:100530000006E1FB03569CF0000F18BF4EF0010EC1
:10054000A4F1FF04B6F5007F64F5407404D25FEABD
:100550004E0E6D4146EB060642EAC62141EA555170
:100560004FEAC52040EA5E504FEACE2EB4F1FD0CB2
:1005700088BFBCF5E06F1ED8BEF1004F08BF5FEA30
:10058000500E50F1000041EB045170BD06F00046E2
:1005900046EA010140EA020081EA0301B4EB5C048F
:1005A000C2BFD4EB0C0541EA045170BD41F4801187
:1005B0004FF0000E013C00F3AB8014F1360FDEBFAC
:1005C000002001F0004170BDC4F10004203C35DA88
:1005D0000C341BDC04F11404C4F1200500FA05F30B
:1005E00020FA04F001FA05F240EA020001F00042AC
:1005F00021F0004110EBD37021FA04F642EB060122
:100600005EEA430E08BF20EAD37070BDC4F10C044B
:10061000C4F1200500FA04F320FA05F001FA04F20F
:1006200040EA020001F0004110EBD37041F10001FB
:100630005EEA430E08BF20EAD37070BDC4F1200506
:1006400000FA05F24EEA020E20FA04F301FA05F26E
:1006500043EA020321FA04F001F0004121FA04F216
:1006600020EA020000EBD3705EEA430E08BF20EAE6
:10067000D37070BD94F0000F0FD101F00046400020
:1006800041EB010111F4801F08BF013CF7D041EAA2
:10069000060195F0000F18BF704703F000465200A6
:1006A00043EB030313F4801F08BF013DF7D043EA77
:1006B0000603704794EA0C0F0CEA135518BF95EA2D
:1006C0000C0F0CD050EA410618BF52EA4306D1D1B4
:1006D00081EA030101F000414FF0000070BD50EAD3
:1006E000410606BF1046194652EA430619D094EA5D
:1006F0000C0F02D150EA013613D195EA0C0F05D147
:1007000052EA03361CBF104619460AD181EA03019A
:1007100001F0004141F0FE4141F470014FF0000052
:1007200070BD41F0FE4141F4780170BD70B54FF0ED
:10073000FF0C4CF4E06C1CEA11541DBF1CEA13556D
:1007400094EA0C0F95EA0C0F00F0A7F8A4EB05044F
:1007500081EA030E52EA03354FEA013100F0888046
:100760004FEA03334FF0805545EA131343EA12630F
:100770004FEA022245EA111545EA10654FEA0026C4
:100780000EF000419D4208BF964244F1FD0404F57D
:10079000407402D25B084FEA3202B61A65EB0305D9
:1007A0005B084FEA32024FF480104FF4002CB6EB96
:1007B000020E75EB030E22BFB61A754640EA0C0016
:1007C0005B084FEA3202B6EB020E75EB030E22BF56
:1007D000B61A754640EA5C005B084FEA3202B6EB97
:1007E000020E75EB030E22BFB61A754640EA9C0056
:1007F0005B084FEA3202B6EB020E75EB030E22BF26
:10080000B61A754640EADC0055EA060E18D04FEAE3
:10081000051545EA16754FEA06164FEAC30343EA83
:1008200052734FEAC2025FEA1C1CC0D111F4801F50
:100830000BD141EA00014FF000004FF0004CB6E749
:1008400011F4801F04BF01430020B4F1FD0C88BFE8
:10085000BCF5E06F3FF6AFAEB5EB030C04BFB6EBF3
:10086000020C5FEA500C50F1000041EB045170BDE6
:100870000EF0004E4EEA113114EB5C04C2BFD4EB13
:100880000C0541EA045170BD41F480114FF0000E97
:10089000013C90E645EA060E8DE60CEA135594EA13
:1008A0000C0F08BF95EA0C0F3FF43BAF94EA0C0F16
:1008B0000AD150EA01347FF434AF95EA0C0F7FF48B
:1008C00025AF104619462CE795EA0C0F06D152EADF
:1008D00003353FF4FDAE1046194622E750EA4106C3
:1008E00018BF52EA43067FF4C5AE50EA41047FF4D4
:1008F0000DAF52EA43057FF4EBAE12E74FF0FF3C39
:1009000006E000BF4FF0010C02E000BF4FF0010C09
:100910004DF804CD4FEA410C7FEA6C5C4FEA430C82
:1009200018BF7FEA6C5C1BD001B050EA410C0CBFD1
:1009300052EA430C91EA030F02BF90EA020F002033
:10094000704710F1000F91EA030F58BF994208BF9A
:1009500090422CBFD8176FEAE37040F00100704757
:100960004FEA410C7FEA6C5C02D150EA013C07D1AE
:100970004FEA430C7FEA6C5CD6D152EA033CD3D0F9
:100980005DF8040B704700BF8446104662468C46F3
:100990001946634600E000BF01B5FFF7B7FF002826
:1009A00048BF10F1000F01BD4DF808EDFFF7F4FF4F
:1009B0000CBF012000205DF808FB00BF4DF808EDDA
:1009C000FFF7EAFF34BF012000205DF808FB00BFFD
:1009D0004DF808EDFFF7E0FF94BF012000205DF81F
:1009E00008FB00BF4DF808EDFFF7CEFF94BF0120D4
:1009F00000205DF808FB00BF4DF808EDFFF7C4FFCD
:100A000034BF012000205DF808FB00BF4FEA410C15
:100A10007FEA6C5C02D150EA013C0AD14FEA430CF8
:100A20007FEA6C5C02D152EA033C02D14FF0000035
:100A300070474FF0010070474FEA410212F5001273
:100A400015D211D56FF47873B3EB625212D94FEA15
:100A5000C12343F0004343EA505311F0004F23FAFF
:100A600002F018BF404270474FF00000704750EA54
:100A7000013005D111F0004008BF6FF00040704711
:100A80004FF00000704700BF4A0011D212F500126B
:100A900011D20DD56FF47873B3EB62520ED44FEAD6
:100AA000C12343F0004343EA505323FA02F0704756
:100AB0004FF00000704750EA013002D14FF0FF3094
:100AC00070474FF0000070474FEA4102B2F1E04337
:100AD00024BFB3F5001CDCF1FE5C0DD901F0004C25
:100AE0004FEAC0024CEA5070B2F1004F40EB830075
:100AF00008BF20F00100704711F0804F21D113F1A1
:100B00003872BCBF01F00040704741F480114FEAD9
:100B10005252C2F11802C2F1200C10FA0CF320FA62
:100B200002F018BF40F001004FEAC1234FEAD3237F
:100B300003FA0CFC40EA0C0023FA02F34FEA4303E9
:100B4000CCE77FEA625307D150EA01331EBF4FF072
:100B5000FE4040F44000704701F0004040F0FE408D
:100B600040F40000704700BF80F0004002E000BF8A
:100B700081F0004142001FBF5FEA410392EA030F88
:100B80007FEA226C7FEA236C6AD04FEA1262D2EBD2
:100B90001363C1BFD218414048404140B8BF5B42D7
:100BA000192B88BF704710F0004F40F4000020F070
:100BB0007F4018BF404211F0004F41F4000121F086
:100BC0007F4118BF494292EA030F3FD0A2F10102D0
:100BD00041FA03FC10EB0C00C3F1200301FA03F10E
:100BE00000F0004302D5494260EB4000B0F5000F31
:100BF00013D3B0F1807F06D340084FEA310102F1F0
:100C00000102FE2A51D2B1F1004F40EBC25008BFA1
:100C100020F0010040EA03007047490040EB00006B
:100C2000013A28BFB0F5000FEDD2B0FA80FCACF16C
:100C3000080CB2EB0C0200FA0CF0AABF00EBC25099
:100C400052421843BCBFD0401843704792F0000F87
:100C500081F4000106BF80F400000132013BB5E7DA
:100C60004FEA41037FEA226C18BF7FEA236C21D050
:100C700092EA030F04D092F0000F08BF08467047B5
:100C800090EA010F1CBF0020704712F07F4F04D183
:100C9000400028BF40F00040704712F100723CBF96
:100CA00000F50000704700F0004343F0FE4040F4C0
:100CB000000070477FEA226216BF08467FEA23637E
:100CC0000146420206BF5FEA412390EA010F40F469
:100CD000800070474FF0000304E000BF10F00043B5
:100CE00048BF40425FEA000C08BF704743F096439C
:100CF00001464FF000001CE050EA010208BF7047B7
:100D00004FF000030AE000BF50EA010208BF70473D
:100D100011F0004302D5404261EB41015FEA010C52
:100D200002BF84460146002043F0B64308BFA3F14A
:100D30008053A3F50003BCFA8CF2083AA3EBC2532C
:100D400010DB01FA02FC634400FA02FCC2F120024B
:100D5000BCF1004F20FA02F243EB020008BF20F082
:100D60000100704702F1200201FA02FCC2F12002E8
:100D700050EA4C0021FA02F243EB020008BF20EADD
:100D8000DC7070474FF0FF0C1CEAD0521EBF1CEA0B
:100D9000D15392EA0C0F93EA0C0F6FD01A4480EAF9
:100DA000010C400218BF5FEA41211ED04FF00063E2
:100DB00043EA501043EA5111A0FB01310CF000400E
:100DC000B1F5000F3EBF490041EAD3715B0040EA34
:100DD000010062F17F02FD2A1DD8B3F1004F40EB04
:100DE000C25008BF20F00100704790F0000F0CF0D7
:100DF000004C08BF49024CEA502040EA51207F3A9B
:100E0000C2BFD2F1FF0340EAC250704740F4000075
:100E10004FF00003013A5DDC12F1190FDCBF00F066
:100E200000407047C2F10002410021FA02F1C2F114
:100E3000200200FA02FC5FEA310040F1000053EAB0
:100E40004C0308BF20EADC70704792F0000F00F0FE
:100E5000004C02BF400010F4000F013AF9D040EA04
:100E60000C0093F0000F01F0004C02BF490011F498
:100E7000000F013BF9D041EA0C018FE70CEAD15396
:100E800092EA0C0F18BF93EA0C0F0AD030F0004C16
:100E900018BF31F0004CD8D180EA010000F00040CA
:100EA000704790F0000F17BF90F0004F084691F088
:100EB000000F91F0004F14D092EA0C0F01D14202C2
:100EC0000FD193EA0C0F03D14B0218BF084608D18B
:100ED00080EA010000F0004040F0FE4040F40000D5
:100EE000704740F0FE4040F4400070474FF0FF0C68
:100EF0001CEAD0521EBF1CEAD15392EA0C0F93EAAF
:100F00000C0F69D0A2EB030280EA010C49024FEA00
:100F1000402037D04FF0805343EA111143EA1013B9
:100F20000CF000408B4238BF5B0042F17D024FF471
:100F3000000C8B4224BF5B1A40EA0C00B3EB510F4C
:100F400024BFA3EB510340EA5C00B3EB910F24BF35
:100F5000A3EB910340EA9C00B3EBD10F24BFA3EBBA
:100F6000D10340EADC001B0118BF5FEA1C1CE0D182
:100F7000FD2A3FF650AF8B4240EBC25008BF20F035
:100F8000010070470CF0004C4CEA50207F32C2BF89
:100F9000D2F1FF0340EAC250704740F400004FF026
:100FA0000003013A37E792F0000F00F0004C02BF57
:100FB000400010F4000F013AF9D040EA0C0093F021
:100FC000000F01F0004C02BF490011F4000F013B7B
:100FD000F9D041EA0C0195E70CEAD15392EA0C0FE3
:100FE00008D142027FF47DAF93EA0C0F7FF470AF1B
:100FF000084676E793EA0C0F04D14B023FF44CAF5E
:1010000008466EE730F0004C18BF31F0004CCAD1F2
:1010100030F000427FF45CAF31F000437FF43CAF2E
:101020005FE700BF4FF0FF3C06E000BF4FF0010C50
:1010300002E000BF4FF0010C4DF804CD4FEA400232
:101040004FEA41037FEA226C18BF7FEA236C11D07C
:1010500001B052EA530C18BF90EA010F58BFB2EB2F
:10106000030088BFC81738BF6FEAE17018BF40F0AF
:10107000010070477FEA226C02D15FEA402C05D163
:101080007FEA236CE4D15FEA412CE1D05DF8040BE8
:10109000704700BF844608466146FFE70FB5FFF77B
:1010A000C9FF002848BF10F1000F0FBD4DF808ED33
:1010B000FFF7F4FF0CBF012000205DF808FB00BF24
:1010C0004DF808EDFFF7EAFF34BF012000205DF87E
:1010D00008FB00BF4DF808EDFFF7E0FF94BF0120CB
:1010E00000205DF808FB00BF4DF808EDFFF7D2FFC8
:1010F00094BF012000205DF808FB00BF4DF808ED0B
:10110000FFF7C8FF34BF012000205DF808FB00BFD7
:101110004FEA4002B2F1FE4F0FD34FF09E03B3EB04
:1011200012620DD94FEA002343F0004310F0004F44
:1011300023FA02F018BF404270474FF0000070479A
:1011400012F1610F01D1420205D110F0004008BF39
:101150006FF0004070474FF00000704742000ED221
:10116000B2F1FE4F0BD34FF09E03B3EB126209D4E2
:101170004FEA002343F0004323FA02F070474FF098
:101180000000704712F1610F01D1420202D14FF00D
:10119000FF3070474FF00000704700BF38B50022A5
:1011A000002304460D46FFF709FC28B920462946CE
:1011B000BDE8384000F00AB8204605F1004100F0D3
:1011C00005F8404261EB410138BD00BFD0B50022B7
:1011D0000B4B06460F46FFF77FF9FFF755FC044619
:1011E000FFF700F90022074BFFF776F902460B469E
:1011F00030463946FEF7B8FFFFF746FC2146D0BD22
:101200000000F03D0000F04180B588B000AF07F16C
:10121000100300221A605A609A60DA60394B9B69A9
:10122000384A43F010039361364B9B6903F0100377
:10123000FB60FB68334B9B69324A43F020039361A8
:10124000304B9B6903F02003BB60BB682D4B9B694F
:101250002C4A43F0040393612A4B9B6903F0040377
:101260007B607B68274B9B69264A43F008039361A8
:10127000244B9B6903F008033B603B6800224FF45A
:101280000051214803F076FF002241F630011F484B
:1012900003F070FF00224FF440711D4803F06AFF15
:1012A0004FF400533B6101237B610023BB610323A7
:1012B000FB6107F110031946134803F0D7FD41F60F
:1012C00030033B6101237B610023BB610123FB6190
:1012D00007F1100319460D4803F0C8FD4FF44073A1
:1012E0003B6111237B610023BB610123FB6107F19B
:1012F00010031946064803F0B9FD00BF2037BD466C
:1013000080BD00BF001002400010014000080140F5
:10131000000C014080B500AF124B134A1A60114B0C
:10132000124A5A600F4B00229A600E4B0022DA607C
:101330000C4B4FF480421A610A4B00225A61094B50
:1013400000229A61074B0022DA61064B00221A62E2
:10135000044803F027FF0346002B01D000F012FBE6
:1013600000BF80BD1C02002000580040801A06000B
:1013700080B588B000AF786007F1100300221A60D2
:101380005A609A60DA607B681B68164A934224D1DF
:10139000154B9B69144A43F008039361124B9B69F8
:1013A00003F00803FB60FB684FF440633B611223CA
:1013B0007B610323FB6107F1100319460B4803F01F
:1013C00055FD094BDB69084A43F48003D361064BA2
:1013D000DB6903F48003BB60BB6800BF2037BD46F8
:1013E00080BD00BF0058004000100240000C0140CA
:1013F00080B582B000AF7860391D4FF6FF730122CF
:10140000034806F017FC7B6818460837BD4680BDC8
:101410000804002080B586B000AF78603960796834
:10142000386808F023FE78617968786908F0C2FDB1
:101430003861386907F018FA02460B46104619461B
:10144000FFF742FB0346FB60FB6818461837BD46B2
:1014500080BD80B586B000AFF860B9607A60796809
:10146000B868FFF785FB03467B617969F868FFF789
:1014700089FC034618461837BD4680BD90B587B035
:1014800000AFF860B9607A603B60F96AB86AFFF74C
:101490006FFB03467B617B681B6879691846FFF721
:1014A00069FB03461A467B681A607B681B6819460D
:1014B0003868FFF705FE0346002B02D07B683A68C8
:1014C0001A607B681A683B6883F00043194610462F
:1014D000FFF7F6FD0346002B04D03B6883F0004283
:1014E0007B681A607969F868FFF74CFC03461C4674
:1014F0007B681B68B9681846FFF744FC0346194629
:101500002046FFF737FB034618461C37BD4690BD03
:101510002DE9B04396B004AF03F062FA00F0DEF8B4
:10152000FFF772FEFFF7F6FE00F028FC00F06AFB02
:1015300000F0A4FD00F0BEFB00F074FC03F058F9CD
:10154000534A0121012003F067F800BF00F028FF93
:101550000346002BFAD100F033FE03F0ADF902F0A0
:10156000DEFF4C4A0121012003F056F84A4A0121CE
:10157000022003F051F8494A0121032003F04CF8FE
:1015800001224749474806F0E0FB474805F0D0FAFA
:1015900000F060FF0346454A13604549454800F0A6
:1015A0001FFE424B1A6804230721012003F0B0F804
:1015B000404B1A6804230721022003F0A9F83C4B92
:1015C0001B6883F0004204230721032003F0A0F8E6
:1015D000364B1B681846FEF727FF80468946354B79
:1015E0001B681846FEF720FF04460D46304B1B686B
:1015F00083F000431846FEF717FF02460B46CDE97D
:101600000223CDE9004542464B462B4808F052FCE8
:101610002A4B1B78012B37D13B462949184608F045
:10162000B2FD264B00221A703B4619462548FFF7AB
:10163000F1FE78643B4619462348FFF7EBFE386419
:101640002249786CFFF75AFD0346002B09D0204948
:10165000786CFFF735FD0346002B02D01D4A7B6CEA
:1016600013604FF04041386CFFF748FD0346002BF4
:101670000AD04FF08041386CFFF722FD0346002B63
:1016800002D0154A3B6C13600A2003F00BFA7FE787
:10169000C8C70008D0C70008D8C70008E0C70008BE
:1016A0009C02002008040020C003002070020020DB
:1016B0007802002074020020E8C700089B02002086
:1016C000A0020020FCC7000800C80008000020C1DC
:1016D000000020417C0200208002002080B590B0F4
:1016E00000AF07F1180328220021184608F047FC34
:1016F0003B1D00221A605A609A60DA601A61012369
:10170000BB614FF48033FB6100233B620123BB626A
:1017100002237B634FF48033BB634FF4E013FB631E
:1017200007F11803184604F0A3FD0346002B01D06F
:1017300000F028F90F237B600223BB600023FB60CD
:101740004FF480633B6100237B613B1D02211846FF
:1017500005F010F80346002B01D000F013F900BF8C
:101760004037BD4680BD000080B582B000AF7860D4
:101770007B68234A93423ED1224B1B78002B13D126
:10178000214B1B78282B31D1204B1B78002B2DD1DE
:101790001C4B01221A701E4B00221A70402200219D
:1017A0001C4808F0ECFB21E0164B1B78012B1DD1E7
:1017B000154B1B78292B0CD1124B00221A70144B9D
:1017C0001B781A46134B00219954104B01221A70B2
:1017D0000CE00F4B1B781A460B4B19780D4B9954A4
:1017E0000B4B1B780133DAB2094B1A700122064900
:1017F000034806F0AAFA00BF0837BD4680BD00BF07
:1018000008040020E00200209C0200209B0200202F
:10181000E1020020A002002090B585B002AF786000
:101820007B68464A934240F08480454B1B785A1CA3
:10183000D1B2434A1170012B22D9424B1B68424A54
:10184000126811461846FFF795F903461846FFF748
:101850005FFC03461CB23D4B1B683B4A12681146B5
:101860001846FFF785F903461846FFF751FC034673
:101870001BB21946204603F02DF8314B00221A7096
:10188000334B1B785A1CD1B2314A1170012B0DD940
:10189000304B1B68304A126819463048FFF7D9FDB3
:1018A0000346294A13602A4B00221A702C4B1B78DE
:1018B0005A1CD1B22A4A1170092B3AD9294B1C68FB
:1018C000294B1B68294A126811461846FFF750F940
:1018D00003464FF080411846FFF708FB034601938B
:1018E0000094234B234A24492448FFF7C7FD0346AD
:1018F000144A13601B4B1C681B4B1B681B4A126865
:1019000011461846FFF734F903464FF08041184658
:10191000FFF7ECFA034601930094154B184A164959
:101920001648FFF7ABFD0346084A13600C4B002234
:101930001A7000BF0C37BD4690BD00BFC003002029
:1019400098020020840200208C02002088020020DF
:101950009A02002080020020700200200080BBC498
:10196000990200207C0200207402002078020020EE
:1019700000401C46900200200000484300007A44CA
:101980009402002080B400AF72B600BF00BFFDE734
:1019900080B485B000AF154B9B69144A43F0010336
:1019A0009361124B9B6903F00103BB60BB680F4B53
:1019B000DB690E4A43F08053D3610C4BDB6903F0C3
:1019C00080537B607B680A4B5B68FB60FB6823F09D
:1019D000E063FB60FB6843F00073FB60044AFB6854
:1019E000536000BF1437BD4680BC704700100240F2
:1019F0000000014080B400AF00BFFDE780B400AF3D
:101A000000BFFDE780B400AF00BFFDE780B400AFCA
:101A100000BFFDE780B400AF00BFFDE780B400AFBA
:101A200000BFBD4680BC704780B400AF00BFBD465C
:101A300080BC704780B400AF00BFBD4680BC70471B
:101A400080B500AF03F012F800BF80BD80B500AFD5
:101A5000024805F0E1FA00BF80BD00BFC0030020CE
:101A600080B500AF024806F095F900BF80BD00BF09
:101A70000804002080B400AF01231846BD4680BC96
:101A8000704780B582B000AF7860396008F04EFBD7
:101A9000034616221A604FF0FF3318460837BD463A
:101AA00080BD80B582B000AF78604FF0FF317868BC
:101AB000FFF7E7FF00BFFDE780B586B000AFF86035
:101AC000B9607A6000237B610AE0AFF300800146D1
:101AD000BB685A1CBA60CAB21A707B6901337B6159
:101AE0007A697B689A42F0DB7B6818461837BD46F6
:101AF00080BD80B586B000AFF860B9607A60002321
:101B00007B6109E0BB685A1CBA601B781846FFF776
:101B10006FFC7B6901337B617A697B689A42F1DBF8
:101B20007B6818461837BD4680BD80B483B000AFCF
:101B300078604FF0FF3318460C37BD4680BC7047C5
:101B400080B483B000AF786039603B684FF40052D6
:101B50005A60002318460C37BD4680BC704780B4DD
:101B600083B000AF7860012318460C37BD4680BCB7
:101B7000704780B485B000AFF860B9607A60002328
:101B800018461437BD4680BC7047000080B586B04B
:101B900000AF7860144A154BD31A7B617B693B61B7
:101BA000134B1B68002B02D1114B124A1A60104BC9
:101BB0001A687B6813443A699A4207D208F0B6FA69
:101BC00003460C221A604FF0FF3309E0084B1B68F4
:101BD000FB60074B1A687B681344054A1360FB6877
:101BE00018461837BD4680BD005000200004000094
:101BF000E4020020B805002080B400AF00BFBD465D
:101C000080BC704780B58CB000AF07F10C03242274
:101C10000021184608F0B3F93B1D00221A605A60F3
:101C2000224B234A1A60214B00225A601F4B00228C
:101C30009A601E4B4FF6FF72DA601C4B00221A614D
:101C40001A4B00225A61194B00229A610323FB6050
:101C500000233B6101237B610023BB610023FB6107
:101C600000233B6201237B620023BB620023FB62F3
:101C700007F10C0319460D4805F09EF80346002BAA
:101C800001D0FFF77FFE00237B600023BB603B1D7C
:101C90001946064805F00EFF0346002B01D0FFF75A
:101CA00071FE00BF3037BD4680BD00BFE802002096
:101CB000002C014080B58AB000AF07F1200300225C
:101CC0001A605A603B1D00221A605A609A60DA60FE
:101CD0001A615A619A61284B4FF080421A60264B74
:101CE00000225A60244B00229A60234B41F61F4287
:101CF000DA60214B00221A611F4B00229A611E48B4
:101D000004F068FF0346002B01D0FFF73BFE0023E1
:101D10003B6200237B6207F120031946164805F059
:101D2000C9FE0346002B01D0FFF72CFE60237B6029
:101D30000023BB600023FB6000237B613B1D00226E
:101D400019460D4805F058FA0346002B01D0FFF75D
:101D500019FE3B1D04221946074805F04DFA0346BB
:101D6000002B01D0FFF70EFE034800F057F900BF2B
:101D70002837BD4680BD00BF3003002080B58CB041
:101D800000AF07F10C0324220021184608F0F7F8F1
:101D90003B1D00221A605A60204B214A1A601F4BDB
:101DA00000225A601D4B00229A601C4B4FF6FF72B6
:101DB000DA601A4B00221A61184B00229A61032341
:101DC000FB6000233B6101237B610023BB61002397
:101DD000FB6100233B6201237B620023BB62002383
:101DE000FB6207F10C0319460C4804F0E5FF0346BB
:101DF000002B01D0FFF7C6FD00237B600023BB60F2
:101E00003B1D1946054805F055FE0346002B01D041
:101E1000FFF7B8FD00BF3037BD4680BD7803002016
:101E20000004004080B586B000AF07F1080300222F
:101E30001A605A609A60DA603B4600221A605A6063
:101E40001D4B1E4A1A601C4B40F2CF225A601A4B9F
:101E500000229A60184B6322DA60174B00221A6145
:101E6000154B00229A61144804F012FE0346002B21
:101E700001D0FFF787FD4FF48053BB6007F10803E3
:101E800019460D4805F07AFA0346002B01D0FFF7FA
:101E900079FD00233B6000237B603B4619460648E2
:101EA00005F008FE0346002B01D0FFF76BFD00BFD5
:101EB0001837BD4680BD00BFC003002000080040A9
:101EC00080B58AB000AF786007F1180300221A606D
:101ED0005A609A60DA607B681B682B4A934225D16E
:101EE0002A4B9B69294A43F400639361274B9B6902
:101EF00003F400637B617B69244B9B69234A43F0B5
:101F000004039361214B9B6903F004033B613B692C
:101F10004FF44073BB610023FB6100233B6207F178
:101F2000180319461A4802F0A1FF28E07B681B68D5
:101F3000184A934223D1154BDB69144A43F002033C
:101F4000D361124BDB6903F00203FB60FB680F4BAC
:101F50009B690E4A43F0040393610C4B9B6903F0A9
:101F60000403BB60BB68C023BB610023FB6100238B
:101F70003B6207F118031946054802F077FF00BFDE
:101F80002837BD4680BD00BF002C01400010024034
:101F9000000801400004004080B485B000AF7860C4
:101FA0007B681B68B3F1804F0BD1084BDB69074A94
:101FB00043F00103D361054BDB6903F00103FB60D0
:101FC000FB6800BF1437BD4680BC7047001002405C
:101FD00080B584B000AF78607B681B680D4A93427F
:101FE00013D10D4BDB690C4A43F00403D3610A4B58
:101FF000DB6903F00403FB60FB68002200211E2064
:1020000002F04BFE1E2002F064FE00BF1037BD46FA
:1020100080BD00BF000800400010024080B588B0BD
:1020200000AF786007F1100300221A605A609A60CE
:10203000DA607B681B68B3F1804F17D10D4B9B6949
:102040000C4A43F0040393610A4B9B6903F00403B9
:10205000FB60FB6803233B6102237B610223FB617E
:1020600007F110031946044802F000FF00BF2037B3
:10207000BD4680BD001002400008014080B500AFA1
:10208000114B124A1A60104B4FF4E1325A600E4B5A
:1020900000229A600C4B0022DA600B4B00221A617E
:1020A000094B0C225A61084B00229A61064B002210
:1020B000DA61054805F06EFD0346002B01D0FFF7FD
:1020C00061FC00BF80BD00BF080400200044004048
:1020D00080B588B000AF786007F1100300221A6065
:1020E0005A609A60DA607B681B681F4A934237D156
:1020F0001E4BDB691D4A43F40033D3611B4BDB6984
:1021000003F40033FB60FB68184B9B69174A43F0EC
:1021100004039361154B9B6903F00403BB60BB6828
:1021200004233B6102237B610323FB6107F110035E
:1021300019460F4802F09AFE08233B6100237B6199
:102140000023BB6107F110031946094802F08EFE17
:1021500000220021262002F0A0FD262002F0B9FD79
:1021600000BF2037BD4680BD004400400010024043
:1021700000080140FFF740FD0B480C490C4A0023C2
:1021800002E0D458C4500433C4188C42F9D3094A2D
:10219000094C002301E013600432A242FBD307F094
:1021A000CBFFFFF7B5F970470000002000020020C8
:1021B00054DF000800020020B8050020FEE7000000
:1021C00080B500AF3C21044804F098FE3C21034850
:1021D00004F094FE00BF80BD78030020E8020020D8
:1021E00080B586B000AF786039607B68002B5FD027
:1021F0003B68002B5CD002F04BFC78612F4B1B68D6
:102200005B6A7B822E4B1B685B6A3B822B4B1B6895
:1022100000225A622A4B1B6800225A62294B1B6813
:10222000002B03D1274A7B69136044E0254B1B68D0
:102230007A69D31A1846FEF74DFD0346224918461F
:10224000FEF754FE0346FB604FF00001F868FEF70E
:1022500041FF0346002B2DD11A4A7B6913601B4BAB
:10226000BB60B7F912301846FEF738FD0346B9686F
:102270001846FEF787FD0346F9681846FEF736FE56
:1022800003461A467B681A60B7F910301846FEF705
:1022900025FD0346B9681846FEF774FD0346F96844
:1022A0001846FEF723FE03461A463B681A6002E012
:1022B00000BF00E000BF1837BD4680BD7803002096
:1022C000E80200205004002000007A44AAD3853A96
:1022D00080B485B000AF78607B6893F90030002B44
:1022E00002DD0023FB812DE07B6893F90030002B99
:1022F00002DA0423FB8125E07B68013393F9003087
:10230000002B02DD0123FB811CE07B68013393F984
:102310000030002B02DA0523FB8113E07B680233D7
:1023200093F90030002B02DD0223FB810AE07B6879
:10233000023393F90030002B02DA0623FB8101E01F
:102340000723FB81FB8918461437BD4680BC7047C4
:1023500080B584B000AF78607868FFF7B9FF0346B6
:10236000FB817B6803331846FFF7B2FF0346DB00AF
:102370001AB2B7F90E3013431BB2FB817B680633E8
:102380001846FFF7A5FF03469B011AB2B7F90E30B6
:1023900013431BB2FB81FB8918461037BD4680BD35
:1023A00080B582B000AF00237B6000F061F97860F7
:1023B0007B68002B01D07B6845E000237B607820A0
:1023C00000F074FD02467B6813447B60782000F0C7
:1023D0001BFD02467B6813447B60642000F0AEFC6A
:1023E00002467B6813447B604FF4FA6000F062FBA6
:1023F00002467B6813447B6001F0ECF802467B6880
:1024000013447B601248FFF7A3FF0346184601F010
:10241000F1F802467B6813447B60902001F054FC85
:1024200002467B6813447B60642001F0CFF90246CA
:102430007B6813447B60012001F068F802467B68EA
:1024400013447B607B6818460837BD4680BD00BFDB
:1024500068C8000890B58FB002AF00237B6207F117
:102460001C0300221A609A8007F1140300221A60EC
:102470009A8000237B8200237B743B4600221A60F3
:102480005A609A60DA6007F124043A4607F11401B1
:1024900007F11C0007F11103019307F112030093E8
:1024A000234601F0FBFDF862FB6A002B02D0104BC3
:1024B0001B6818E07B7C002BE5D1B7F9203018466B
:1024C000FEF70CFC03460B491846FEF70FFD0346CA
:1024D000BB620949B86AFEF755FC03461A46044B2D
:1024E0001A60034B1B6818463437BD4690BD00BFC9
:1024F000540400203333834135FA8E3C80B588B0D4
:1025000004AF3B600346FB710B46BB7113467B7106
:10251000FB799BB25B00FB81BB799AB27B799BB262
:10252000F9894FF0FF30029001933B68009301233B
:10253000064802F07BFF0346002B02D04FF0FF332A
:1025400000E0002318461037BD4680BD1C02002065
:1025500080B588B004AF3B600346FB710B46BB718E
:1025600013467B71FB799BB25B00FB81BB799AB20E
:102570007B799BB2F9894FF0FF30029001933B6861
:1025800000930123064803F04BF80346002B02D0CA
:102590004FF0FF3300E0002318461037BD4680BDE2
:1025A0001C02002080B582B000AF7860786802F02D
:1025B00079FA00BF0837BD4680BD000080B584B001
:1025C00000AF0346FB71294B93F82430002B1CD03D
:1025D000FB79002B02D00223FB7301E00023FB7385
:1025E000224B5B681878214B1B68597C07F10F035D
:1025F0000122FFF783FF0346002B02D04FF0FF3389
:1026000030E0FA7B194B5A742BE0184B9B7A002B65
:1026100002D14FF0FF3325E0FB79002B05D0134B9F
:102620005B7C002B01D000231CE0FB79002B02D047
:102630000123FB7301E00023FB730C4B5B681878EC
:102640000A4B1B68597C07F10F030122FFF756FF65
:102650000346002B02D04FF0FF3303E0FA7B034B1D
:102660005A74002318461037BD4680BD0400002070
:1026700080B582B000AF80233B704F4B5B68187809
:102680004D4B1B68597D3B460122FFF737FF034640
:10269000002B02D04FF0FF3389E06420FFF782FF68
:1026A00000233B70444B5B681878434B1B68597D93
:1026B0003B460122FFF722FF0346002B02D04FF0DA
:1026C000FF3374E03C4B0022DA743B4BFF229A72DA
:1026D000394BFF221A72384BFF225A72364BFF22B7
:1026E000DA72354B4FF6FF72DA81334BFF221A74E0
:1026F000314BFF229A74304B01221A732E4B012268
:1027000083F822202C4B002283F823202A4B00221E
:102710005A75294B00221A750C220021274807F010
:102720002EFC254B002283F82420234B002283F823
:102730002520214B0022DA844FF4FA6000F0BAF928
:102740000346002B02D04FF0FF3330E0022000F0B0
:102750003FFA0346002B02D04FF0FF3327E02A2038
:1027600000F09EFA0346002B02D04FF0FF331EE02C
:10277000322000F0E3FA0346002B02D04FF0FF3383
:1027800015E0002000F040FB0346002B02D04FF084
:10279000FF330CE0002000F08DFC0346002B02D03C
:1027A0004FF0FF3303E0002000F080FB00231846C9
:1027B0000837BD4680BD00BF040000201A0000207D
:1027C00080B584B000AF0346FB80FB88002B1CD192
:1027D000002000F035FD00233B7307237B73324B51
:1027E0005B681878304B1B68597D07F10C03022297
:1027F000FFF784FE0346002B02D04FF0FF334FE07B
:10280000294B00221A7500234AE0012000F018FD30
:1028100020233B73FB88012B05D100237B7305200C
:1028200000F03EFA16E0FB88052B05D801237B73E8
:10283000052000F035FA0DE0FB88142B05D80223A3
:102840007B730A2000F02CFA04E003237B7314202E
:1028500000F026FA7B7B9B015BB243F007035BB27F
:10286000DBB27B73104B5B6818780F4B1B68597D8C
:1028700007F10C030222FFF741FE0346002B02D0B2
:102880004FF0FF330CE0084B08229A72064B0022EF
:102890001A73054B01221A75002000F0B5FA0023C7
:1028A00018461037BD4680BD0400002080B582B0B8
:1028B00000AF7E4B9B7A002B02D14FF0FF33F1E04B
:1028C0000023FB71794B5B681878784B1B68597C47
:1028D000FB1D0122FFF712FE0346002B02D04FF032
:1028E000FF33DFE0714B5B681878704B1B685979D8
:1028F000FB1D0122FFF702FE0346002B02D04FF022
:10290000FF33CFE0694B5B681878684B1B68197917
:10291000FB1D0122FFF7F2FD0346002B02D04FF012
:10292000FF33BFE0614B93F82430002B5CD00C23C5
:10293000FB715E4B5B6818785C4B1B681979FB1D5B
:102940000122FFF7DBFD0346002B02D04FF0FF33DF
:10295000A8E03220FFF726FEC023FB71534B9B7A81
:1029600003F00103002B04D0FB7943F02003DBB21A
:10297000FB714E4B5B6818784C4B1B681979FB1D3B
:102980000122FFF7BBFD0346002B02D04FF0FF33BF
:1029900088E0464B5B7C002B02D00223FB7101E0F8
:1029A0000023FB71414B5B681878404B1B68597CD6
:1029B000FB1D0122FFF7A2FD0346002B02D04FF0C2
:1029C000FF336FE00023FB71384B5B681878374B9F
:1029D0001B685979FB1D0122FFF790FD0346002B70
:1029E0005FD04FF0FF335DE00423FB712F4B5B683A
:1029F00018782E4B1B681979FB1D0122FFF77EFD0D
:102A00000346002B02D04FF0FF334BE0274B9B7C5B
:102A1000002B05D1254B9B7A03F00103002B02D13B
:102A20004023FB7101E06023FB71204B5B68187849
:102A30001E4B1B681979FB1D0122FFF75FFD034642
:102A4000002B02D04FF0FF332CE03220FFF7AAFD1D
:102A5000164B5B7C002B02D00123FB7101E00023AD
:102A6000FB71124B5B681878104B1B68597CFB1D7F
:102A70000122FFF743FD0346002B02D04FF0FF3346
:102A800010E00A4B5B681878084B1B685979084BB3
:102A90000122FFF733FD0346002B02D04FF0FF3336
:102AA00000E0002318460837BD4680BD0400002022
:102AB0001400002080B584B000AF0346FB80264B95
:102AC0009B7A002B02D14FF0FF3341E0FB88B3F536
:102AD000FA6F17D0B3F5FA6F17DCB3F57A7F0ED023
:102AE000B3F57A7F11DCFA2B03D0B3F5FA7F03D06C
:102AF0000BE00023FB730BE00823FB7308E01023BB
:102B0000FB7305E01823FB7302E04FF0FF331FE077
:102B1000114B1A7AFB7BDB08DBB29A4201D100230E
:102B200016E00D4B5B6818780B4B1B68997907F121
:102B30000F030122FFF7E2FC0346002B02D04FF007
:102B4000FF3305E0FB7BDB08DAB2034B1A7200238C
:102B500018461037BD4680BD0400002080B483B005
:102B600000AF7860194B5B7A032B1BD801A252F897
:102B700023F000BF852B00088D2B0008952B000843
:102B80009D2B00087B6802221A700EE07B680422ED
:102B90001A700AE07B6808221A7006E07B6810222F
:102BA0001A7002E04FF0FF330AE0084BDB7C002B89
:102BB00005D07B681B785B00DAB27B681A70002353
:102BC00018460C37BD4680BC704700BF040000208B
:102BD00080B584B000AF0346FB71304B9B7A002B6D
:102BE00002D14FF0FF3354E0FB79023B0E2B2DD87E
:102BF00001A252F823F000BF352C00084D2C00082C
:102C00003B2C00084D2C00084D2C00084D2C0008D2
:102C1000412C00084D2C00084D2C00084D2C0008BC
:102C20004D2C00084D2C00084D2C00084D2C0008A0
:102C3000472C00080023FB730BE00823FB7308E01C
:102C40001023FB7305E01823FB7302E04FF0FF3302
:102C50001FE0124B5A7AFB7BDB08DBB29A4201D1B0
:102C6000002316E00D4B5B6818780C4B1B68D97974
:102C700007F10F030122FFF741FC0346002B02D0AE
:102C80004FF0FF3305E0FB7BDB08DAB2034B5A72EF
:102C9000002318461037BD4680BD00BF0400002049
:102CA00080B584B000AF0346FB80234B9B7A002B9A
:102CB00002D14FF0FF333BE0FB88BB2B02D901234D
:102CC000FB7319E0FB88612B02D90223FB7313E02D
:102CD000FB88292B02D90323FB730DE0FB88132B00
:102CE00002D90423FB7307E0FB88092B02D90523D3
:102CF000FB7301E00623FB730F4BDA7AFB7B9A42EE
:102D000001D1002314E00C4B5B6818780A4B1B6858
:102D1000997807F10F030122FFF7F0FB0346002B20
:102D200002D04FF0FF3303E0FA7B034BDA7200234B
:102D300018461037BD4680BD0400002080B584B021
:102D400000AF0346FB802F4B9B7A002B02D14FF044
:102D5000FF3352E02B4B93F82430002B02D04FF07E
:102D6000FF334AE0274B1B7D002B0ED0FB88002B46
:102D700008D0FB88282B05D8FB881846FFF720FDD4
:102D800000233AE00020FFF71BFDFB88032B02D84D
:102D90000423FB8006E0FB88B3F57A7F02D94FF469
:102DA0007A73FB80FB884FF47A7292FBF3F3DBB209
:102DB000013BDBB2FB73134B5B681878114B1B684C
:102DC000597807F10F030122FFF798FB0346002B08
:102DD00002D04FF0FF3310E0FB7B01334FF47A72E7
:102DE00092FBF3F39AB2074BDA81064BDB895B085F
:102DF0009BB21846FFF754FF002318461037BD4614
:102E000080BD00BF0400002080B584B000AF034641
:102E1000FB710023FB60FB7923F00103FB71224B64
:102E200093F82430002B01D0002338E01E4B9B7A0E
:102E3000002B02D14FF0FF3331E01B4B1B7CFB72A8
:102E4000194B9A7AFB791340DAB2174B1A74164B66
:102E50001B7CFA799A4203D04FF0FF33FB6001E00C
:102E60000023FB60FB79002B03D10F4B1B7D002B54
:102E700003D00120FFF7A2FB02E00020FFF79EFB3A
:102E8000FB79002B0AD0FFF711FD0346002B05D07C
:102E9000054AFB7A13744FF0FF3300E0FB681846D5
:102EA0001037BD4680BD00BF0400002080B584B04F
:102EB00000AF0346FB71FB7903F07003002B02D0D7
:102EC0000123FB7307E0FB79002B02D00023FB7387
:102ED00001E04023FB73374B5B681878354B1B6868
:102EE000597D07F10F030122FFF708FB0346002B72
:102EF00005D0304B00229A724FF0FF3356E0FB7B37
:102F000023F04003DAB22B4B1A730023FB73FB79D7
:102F100003F04003002B04D1FB7B43F00403DBB23E
:102F2000FB73FB7903F02003002B04D1FB7B43F000
:102F30000203DBB2FB73FB7903F01003002B04D117
:102F4000FB7B43F00103DBB2FB73FB7903F0080367
:102F5000002B04D1FB7B43F03803DBB2FB73154B32
:102F60005B681878134B1B68997D07F10F030122EA
:102F7000FFF7C4FA0346002B05D00E4B00229A72CD
:102F80004FF0FF3312E0FB79002B05D0FB79082BC3
:102F900002D0002000F054F9064AFB799372054BE9
:102FA00000221A753220FFF7FDFA00231846103769
:102FB000BD4680BD0400002080B586B000AF03464A
:102FC000B9607A60FB813A4B93F82430002B02D130
:102FD0004FF0FF3368E0364B9B7A002B02D14FF065
:102FE000FF3361E0324B5B681878314B1B68197B0B
:102FF00007F114030222FFF7ABFA0346002B02D0BD
:103000004FF0FF3350E03B7D1B021AB27B7D1BB2B9
:1030100013431BB2FB82FA8AFB899A4205D27B6872
:1030200000221A704FF0FF333EE0214B5B685B8853
:103030005B089BB2FA8A9A421AD91D4B5B681878D2
:103040001B4B1B68D97C07F114030122FFF780FAA0
:103050000346002B02D04FF0FF3325E03B7D03F009
:103060001003002B04D0FFF721FC6FF001031BE0DD
:103070000F4B5B6818780E4B1B68597BFB89DAB2E3
:10308000BB68FFF765FA0346002B02D04FF0FF3311
:103090000AE0FA8AFB89B2FBF3F39BB2DBB2013B95
:1030A000DAB27B681A70002318461837BD4680BD17
:1030B0000400002080B584B000AF0346FB715F4B75
:1030C0009B7CFA799A4201D10023B2E0FB79002B74
:1030D00050D05A4B5B681878584B1B68197907F128
:1030E0000F030122FFF734FA0346002B02D04FF002
:1030F000FF339EE0FB7B23F02003DBB2FB734F4BDF
:103100005B6818784D4B1B68197907F10F03012292
:10311000FFF7F4F90346002B02D04FF0FF3388E0AD
:103120000320FFF73FFA0223FB73444B93F822304E
:10313000002B04D0FB7B63F07F03DBB2FB733F4BC0
:1031400093F82330002B04D0FB7B43F03003DBB239
:10315000FB733A4B5B681878384B1B68D97D07F1D5
:103160000F030122FFF7CAF90346002B5DD04FF091
:10317000FF335EE0314B5B681878304B1B68197980
:1031800007F10F030122FFF7E3F90346002B02D0FA
:103190004FF0FF334DE0294B9B7A03F00103002BE6
:1031A00005D0FB7B43F02003DBB2FB7304E0FB7B29
:1031B00023F02003DBB2FB73204B5B6818781F4BB6
:1031C0001B68197907F10F030122FFF797F90346EE
:1031D000002B02D04FF0FF332BE00320FFF7E2F982
:1031E000164B93F82230002B02D08023FB7301E0B2
:1031F0000023FB73114B93F82330002B04D0FB7B8F
:1032000043F03003DBB2FB730C4B5B6818780B4B5D
:103210001B68D97D07F10F030122FFF76FF9034601
:10322000002B02D04FF0FF3303E0044AFB79937484
:10323000002318461037BD4680BD00BF04000020A3
:1032400080B584B000AF0346FB711E4B93F823306A
:10325000FA799A4201D1002330E0FB79002B02D0A9
:103260003023FB7301E00023FB73164B9B7C002B88
:1032700004D0FB7B43F00203DBB2FB73114B93F8EA
:103280002230002B04D0FB7B63F07F03DBB2FB73A7
:103290000C4B5B6818780B4B1B68D97D07F10F034B
:1032A0000122FFF72BF90346002B02D04FF0FF332A
:1032B00004E0044AFB7982F82330002318461037D3
:1032C000BD4680BD0400002080B584B000AF034639
:1032D0003A60FB800B46BB803B68002B02D14FF06D
:1032E000FF333DE0204B9B7A002B02D14FF0FF33A0
:1032F00036E0FB881B0A9BB2DBB23B73FB88DBB278
:103300007B737B7B1A46BB881344174A52685289E9
:10331000934202DD4FF0FF3322E0134B5B681878D5
:10332000114B1B68D97E07F10C030222FFF7E6F868
:103330000346002B02D04FF0FF3311E00A4B5B68CD
:103340001878094B1B68197EBB88DAB23B68FFF717
:10335000D5F80346002B02D04FF0FF3300E00023E6
:1033600018461037BD4680BD0400002080B584B0EB
:1033700000AF03463A60FB800B46BB803B68002BE6
:1033800002D14FF0FF333DE0204B9B7A002B02D15E
:103390004FF0FF3336E0FB881B0A9BB2DBB23B7376
:1033A000FB88DBB27B737B7B1A46BB881344174ACE
:1033B00052685289934202DD4FF0FF3322E0134BF3
:1033C0005B681878114B1B68D97E07F10C03022249
:1033D000FFF794F80346002B02D04FF0FF3311E0C3
:1033E0000A4B5B681878094B1B68197EBB88DAB2F8
:1033F0003B68FFF7ADF80346002B02D04FF0FF33D8
:1034000000E0002318461037BD4680BD04000020B0
:1034100080B58AB000AFB96011461A460346FB81F9
:103420000B46BB811346FB80374B93F82530002BAE
:1034300002D04FF0FF3362E0BB68002B02D14FF0A7
:10344000FF335CE00023FB8434E0FA89FB8CD31A61
:10345000102BA8BF1023BB84FB8CBA681A44B98C0C
:10346000FB8C1846FFF730FF0346002B02D04FF0CD
:10347000FF3344E007F11402B98CFB8C1846FFF7C8
:1034800075FF0346002B02D04FF0FF3337E0FB8C73
:10349000BA681344BA8C07F11401184606F05FFDB0
:1034A0000346002B02D06FF0010328E0FA8CBB8C9E
:1034B0001344FB84FA8CFB899A42C6D3BB891B0A4E
:1034C0009BB2DBB23B74BB89DBB27B740E4B5B6897
:1034D00018780D4B1B68597F07F110030222FFF784
:1034E0000DF80346002B02D04FF0FF3307E0064BE8
:1034F000012283F82520044AFB88D3840023184640
:103500002837BD4680BD00BF0400002080B584B0D0
:1035100000AF0346FB71264B93F82430FA799A42A8
:1035200001D1002340E0FB79002B27D0204B93F8FA
:103530002530002B02D14FF0FF3335E00020FFF79C
:103540003DF80020FFF7B6FD194BDB8C1846FFF75E
:10355000F5FB0023FB73164B5B68187807F10F032C
:1035600001222321FEF7CAFF114B012283F82420F8
:103570000120FFF723F8FFF799F914E00020FFF787
:103580001DF80B4B1B7CFB73094B5B68187807F12C
:103590000F0301222321FEF7B1FF054B002283F820
:1035A0002420FFF783F9002318461037BD4680BD5D
:1035B0000400002080B582B000AF78607B68002BEB
:1035C00004D001F065FA02467B681A6000BF083734
:1035D000BD4680BD80B500AF4FF48062C82304496A
:1035E00040F6F630FFF714FF0346184680BD00BFD3
:1035F000C8C8000880B588B000AF0346FB806E4A9B
:1036000007F114031268114619800233120C1A7064
:103610006A4A07F110031268114619800233120C2E
:103620001A70674A07F10C031268114619800233B9
:10363000120C1A70634A07F10803126811461980C8
:103640000233120C1A70FB8803F0030320333B444F
:1036500013F80C3C3B77FB88DB089BB203F00303B9
:1036600020333B4413F80C3C7B77FB889B099BB2CF
:1036700003F0030320333B4413F80C3CBB77FB8877
:1036800003F0030320333B4413F8103C3B76FB88E4
:10369000DB089BB203F0030320333B4413F8103CD8
:1036A0007B76FB889B099BB203F0030320333B44EA
:1036B00013F8103CBB7607F11C031A46032140F2B5
:1036C0002640FFF701FE0346002B02D04FF0FF33E8
:1036D0006EE007F118031A46032140F22A40FFF773
:1036E000F3FD0346002B02D04FF0FF3360E007F1FB
:1036F0001C0307F10C021268114619800233120CE8
:103700001A7007F1180307F10802126811461980B0
:103710000233120C1A70FB8803F00403002B09D04B
:103720003B7F43F00103DBB23B773B7E43F0010379
:10373000DBB23B76FB8803F02003002B09D07B7FB4
:1037400043F00103DBB27B777B7E43F00103DBB206
:103750007B76FB8803F48073002B09D0BB7F43F09A
:103760000103DBB2BB77BB7E43F00103DBB2BB7668
:1037700007F11C031A4603214FF48860FFF7A4FDEC
:103780000346002B02D04FF0FF3311E007F118037E
:103790001A46032140F23140FFF796FD0346002B05
:1037A00002D04FF0FF3303E0074AFB881381002368
:1037B00018462037BD4680BD04C8000808C8000868
:1037C0000CC8000810C800085804002080B588B054
:1037D00000AF0346FB801F4A07F1100307CA83E8C6
:1037E0000700FB88C82B02D94FF0FF332EE0FB887F
:1037F000C82292FBF3F39BB2013BFB83FB8B1B0ABA
:103800009BB2DBB23B72FB8BDBB27B7207F108032E
:103810001A46022140F21620FFF756FD0346002B00
:1038200002D04FF0FF3311E007F110031A460C21CC
:1038300040F6C120FFF748FD0346002B02D04FF0B1
:10384000FF3303E0044AFB889381002318462037A6
:10385000BD4680BD14C800085804002080B586B05D
:1038600000AF03460A46FB711346BB80FB7903F0A9
:103870000703002B03D0BB88B3F5C86F02D94FF004
:10388000FF3307E1BB881846FDF724FA0346834956
:103890001846FDF72BFB03463B6107F10B03184667
:1038A000FFF75CF9FB7A023B0E2B79D801A252F8A4
:1038B00023F000BFF1380008A13900081D390008C5
:1038C000A1390008A1390008A139000849390008C8
:1038D000A1390008A1390008A1390008A139000860
:1038E000A1390008A1390008A1390008753900087C
:1038F0004FF08D413869FDF745FA03461846FDF74C
:103900002DFC0346FB8266493869FDF73BFA034606
:103910001846FDF723FC0346BB8244E04FF08C4180
:103920003869FDF72FFA03461846FDF717FC0346E2
:10393000FB825C493869FDF725FA03461846FDF716
:103940000DFC0346BB822EE04FF08B413869FDF73A
:1039500019FA03461846FDF701FC0346FB8252495B
:103960003869FDF70FFA03461846FDF7F7FB0346E3
:10397000BB8218E04FF08A413869FDF703FA03462D
:103980001846FDF7EBFB0346FB8248493869FDF713
:10399000F9F903461846FDF7E1FB0346BB8202E056
:1039A0004FF0FF3376E0FB8A1B0A9BB2DBB23B731E
:1039B000FB8ADBB27B73BB8A1B0A9BB2DBB2BB7395
:1039C000BB8ADBB2FB73FB7903F00103002B1CD035
:1039D00007F10C031A4602214FF4EA70FFF774FC5A
:1039E0000346002B02D04FF0FF3353E007F10C03E6
:1039F00002331A4602214FF49270FFF765FC03462A
:103A0000002B02D04FF0FF3344E0FB7903F00203B8
:103A1000002B1CD007F10C031A4602214FF4EC7066
:103A2000FFF752FC0346002B02D04FF0FF3331E08A
:103A300007F10C0302331A4602214FF49470FFF78A
:103A400043FC0346002B02D04FF0FF3322E0FB790A
:103A500003F00403002B1CD007F10C031A460221CB
:103A60004FF4EE70FFF730FC0346002B02D04FF00E
:103A7000FF330FE007F10C0302331A4602214FF423
:103A80009670FFF721FC0346002B02D04FF0FF3366
:103A900000E0002318461837BD4680BD00004843AB
:103AA000000040460000C045000040450000C04402
:103AB00080B584B000AF0346FB710023FB73FB7934
:103AC00003F00103002B04D0FB7B43F03003DBB297
:103AD000FB73FB7903F00203002B04D0FB7B43F064
:103AE0000C03DBB2FB73FB7903F00403002B04D05F
:103AF000FB7B43F00303DBB2FB7307F10F031A46B2
:103B000001214FF4A470FFF7DFFB0346184610377E
:103B1000BD4680BD80B584B000AF0346FB71FB7924
:103B2000002B02D10123FB7104E0FB79042B01D9A6
:103B30000423FB71FB79013BDBB2FB7307F10F033D
:103B40001A46012140F24F10FFF7BEFB034618460C
:103B50001037BD4680BD000080B584B000AF03467D
:103B6000FB80FB880C4AA2FB03239B08FB81FB899B
:103B70001B0A9BB2DBB23B73FB89DBB27B7307F1A1
:103B80000C031A4602214FF4EF70FFF79DFB03462A
:103B900018461037BD4680BDCDCCCCCC80B584B0A6
:103BA00000AF0346FB80FB880C4AA2FB03239B0863
:103BB000FB81FB891B0A9BB2DBB23B73FB89DBB247
:103BC0007B7307F10C031A4602214FF4ED70FFF7E7
:103BD0007BFB034618461037BD4680BDCDCCCCCC10
:103BE00080B584B000AF78600B467B807B68134A59
:103BF00082FB03129211DB17D31A7A8802FB03F3BC
:103C0000FB60FB681B16DBB23B72FB681B14DBB26C
:103C10007B72FB681B12DBB2BB72FB68DBB2FB7210
:103C200007F108031A4604214FF4AE70FFF74CFB6E
:103C3000034618461037BD4680BD00BFD34D621005
:103C400080B584B000AF0346FB80FB880C4AA2FB22
:103C500003239B08FB80FB881B0A9BB2DBB23B73F0
:103C6000FB88DBB27B7307F10C031A4602214FF489
:103C7000AD70FFF729FB034618461037BD4680BDDF
:103C8000CDCCCCCC80B584B000AF0346FB80FB88A4
:103C90000C4AA2FB03239B08FB80FB881B0A9BB2F8
:103CA000DBB23B73FB88DBB27B7307F10C031A4674
:103CB00002214FF4AC70FFF707FB0346184610379C
:103CC000BD4680BDCDCCCCCC80B586B000AF034620
:103CD000FB8002233B73CA237B73E323BB7309235B
:103CE000FB7307F10C031A4604216820FFF7ECFA76
:103CF000A3233B73FB8803F04003002B06D0C023B3
:103D00007B73C823BB73C223FB7305E0A3237B73C0
:103D1000A323BB73A323FB73FB8803F4C073002BA3
:103D200006D0C4233B74CC237B74C623BB7405E04C
:103D3000A3233B74A3237B74A323BB74A323FB742F
:103D4000A3233B75A3237B7507F10C031A460A21B5
:103D500040F6A720FFF7B8FAFB8803F00303002B17
:103D600002D020233B7301E0D8233B7307F10C03FF
:103D70001A46012140F6B620FFF7A6FAFB8803F0A9
:103D80002003002B03D0012000F0C6F802E0002041
:103D900000F0C2F8FB8803F4C073002B1DD0FB8831
:103DA00003F48073002B08D0B2233B738B237B7307
:103DB000B623BB739B23FB7307E0B0233B738023C5
:103DC0007B73B423BB739023FB7307F10C031A4678
:103DD000042140F6A220FFF777FAFB8803F00103E5
:103DE000002B25D0F8233B7307F10C031A46012161
:103DF0004FF40B60FFF768FAFA210720FFF72EFD5A
:103E00000720FFF755FE0120FFF784FE6420FFF72F
:103E1000A3FE4FF4FA70FFF7C1FEC8213C48FFF73C
:103E2000DFFE2820FFF70CFF0A20FFF72BFF09E039
:103E3000D8233B7307F10C031A4601214FF40B60A2
:103E4000FFF742FAFB8803F00203002B02D0D923CC
:103E50003B7301E0D8233B7307F10C031A460121A1
:103E600040F23D70FFF730FAFB8803F00403002BAB
:103E700003D0012000F080F802E0002000F07CF880
:103E8000FB8803F01003002B03D0012000F09BF807
:103E900002E0002000F097F8FB8843F008039AB294
:103EA0001C4B5A81FEF702FD1A4B00229A73FB88C5
:103EB00003F04003002B05D0164B9B7B0633DAB290
:103EC000144B9A73FB8803F4C073002B05D0114B7D
:103ED0009B7B0633DAB20F4B9A73FB8803F0140313
:103EE000002B05D00B4B9B7B1033DAB2094B9A7336
:103EF000FB8803F00303002B05D0064B9B7B0433A8
:103F0000DAB2044B9A73002318461837BD4680BDB9
:103F100009E3CA025804002080B588B000AF034608
:103F2000FB71FB79002B0FD0114A07F1140307CA6C
:103F300003C31A7007F114031A4609214FF497605E
:103F4000FFF7C2F903460EE00A4A07F1080307CA61
:103F500003C31A7007F108031A4609214FF497604A
:103F6000FFF7B2F9034618462037BD4680BD00BFB3
:103F700020C800082CC8000880B584B000AF0346F4
:103F8000FB71FB79002B08D0C0233B73C2237B73EA
:103F9000C423BB73C623FB7306E007F10C030422A2
:103FA0008B21184605F0EBFF07F10C031A4604219C
:103FB00040F69820FFF788F9FEF778FC034618468C
:103FC0001037BD4680BD80B584B000AF0346FB719D
:103FD000FB79002B08D020233B7328237B733023ED
:103FE000BB733823FB7306E007F10C030422A32103
:103FF000184605F0C4FF07F10C031A46042140F6E9
:104000009E20FFF761F9FEF751FC03461846103772
:10401000BD4680BD80B584B000AF78607B68033357
:104020001B7823F03F03FB737B6803331B7803F09B
:104030003F03BB737B6801331B7803F00103002B44
:1040400012D0BB7BDB087B73BB7B03F00703DBB2C7
:1040500001333B73104B1B68002B05D00E4B1B68C4
:10406000397B7A7B104698477B6801331B7803F0D5
:104070000803002B0AD0084B5B68002B06D0064BC8
:104080005B68FA7B9209D2B2104698470023184623
:104090001037BD4680BD00BF5804002080B592B0E7
:1040A00000AFF860B9607A603B60002387F8473062
:1040B0003B6D00221A80AE4B9B7B184607F1200314
:1040C0007A6D1946FEF778FF0346002B02D04FF0B9
:1040D000FF3348E1A64B5B8903F01403002B00F08B
:1040E0008A8097F820301A0697F821301B041A436B
:1040F00097F822301B02134397F823201A437B685A
:104100001A6097F824301A0697F825301B041A43D2
:1041100097F826301B021A4397F8273019467B6818
:1041200004330A431A6097F828301A0697F82930A2
:104130001B041A4397F82A301B021A4397F82B30B6
:1041400019467B6808330A431A6097F82C301A0620
:1041500097F82D301B041A4397F82E301B021A4390
:1041600097F82F3019467B680C330A431A6097F88A
:104170004730103387F847307B681B681B143B615E
:104180007B6804331B681B147B617B6808331B68E6
:104190001B14BB617B680C331B681B14FB613B6900
:1041A0003A6903FB02F27B69796901FB03F31A4464
:1041B000BB69B96901FB03F31A44FB69F96901FBA7
:1041C00003F313443B643B6CB3F1706F03DB3B6C54
:1041D000B3F1885F07DDFEF769FB3B6D00221A80B3
:1041E0004FF0FF33BFE03B6DB3F9003043F4807311
:1041F0001AB23B6D1A805E4B5B8903F04003002BC3
:104200004CD097F8473048333B4413F8283C1B0206
:104210001AB297F84730013348333B4413F8283C2F
:104220001BB213431AB2BB681A8097F847300233A7
:1042300048333B4413F8283C1B0219B297F8473027
:10424000033348333B4413F8283C1AB2BB680233AB
:104250000A4312B21A8097F84730043348333B447C
:1042600013F8283C1B0219B297F84730053348333E
:104270003B4413F8283C1AB2BB6804330A4312B219
:104280001A8097F84730063387F847303B6DB3F90B
:10429000003043F008031AB23B6D1A80344B5B893F
:1042A00003F4C073002B4CD097F8473048333B449D
:1042B00013F8283C1B021AB297F8473001334833F1
:1042C0003B4413F8283C1BB213431AB2FB681A8014
:1042D00097F84730023348333B4413F8283C1B021D
:1042E00019B297F84730033348333B4413F8283C5E
:1042F0001AB2FB6802330A4312B21A8097F84730A9
:10430000043348333B4413F8283C1B0219B297F896
:104310004730053348333B4413F8283C1AB2FB6856
:1043200004330A4312B21A8097F84730063387F8ED
:1043300047303B6DB3F9003043F070031AB23B6D68
:104340001A800B4B5B8903F00303002B07D097F80F
:10435000473007F1200213441846FFF75BFE386828
:10436000FFF728F9002318464837BD4680BD00BF37
:104370005804002080B500AF01224FF48071054839
:1043800000F0F8FE01224FF40071024800F0F2FE46
:1043900000BF80BD000C014080B500AF01224FF48A
:1043A00000710B4800F0E6FE01224FF480710848CE
:1043B00000F0E0FE00224FF40071054800F0DAFE44
:1043C00000224FF48071024800F0D4FE00BF80BD8F
:1043D000000C014080B500AF00224FF40071084886
:1043E00000F0C8FE01224FF48071054800F0C2FEC3
:1043F00001224FF40071024800F0BCFE00BF80BDF6
:10440000000C014080B584B000AF0346FB7100236F
:10441000FB731EE0FB7B802242FA03F35AB297F94A
:10442000073013405BB2DBB21A464FF400711248FA
:1044300000F0A0FE01224FF480710F4800F09AFEB8
:1044400000224FF480710C4800F094FEFB7B013396
:10445000FB73FB7B072BDDD901224FF480710648EB
:1044600000F088FE00224FF48071034800F082FEC5
:1044700000BF1037BD4680BD000C014080B582B042
:1044800000AF0346FB71FFF787FF7820FFF7BAFF05
:104490000020FFF7B7FFFB791846FFF7B3FFFFF7E0
:1044A00099FF00BF0837BD4680BD80B582B000AF20
:1044B0000346FB71FFF770FF7820FFF7A3FF402052
:1044C000FFF7A0FFFB791846FFF79CFFFFF782FF7D
:1044D00000BF0837BD4680BD80B582B000AF03463F
:1044E0000A46FB711346BB71FB7963F04F03DBB2E5
:1044F0001846FFF7C3FFBB791B09DBB243F010037B
:10450000DBB21846FFF7BAFFBB7903F00F03DBB24B
:104510001846FFF7B3FF00BF0837BD4680BD80B522
:1045200082B000AF0023BB7114E0BB7900211846B4
:10453000FFF7D2FF0023FB7105E00020FFF7B5FF76
:10454000FB790133FB7197F90730002BF5DABB7962
:104550000133BB71BB79072BE7D900BF00BF083718
:10456000BD4680BD80B584B000AF0346FB710B46ED
:10457000BB7113467B71FB79013BDBB25B00DAB2A6
:10458000BB79013BDBB2DB00DBB219461046FFF71B
:10459000A3FF0023FB730EE07B79A3F12002FB7BDA
:1045A0001C4912010A4413441B781846FFF77DFF8B
:1045B000FB7B0133FB73FB7B072BEDD9FB79013BC5
:1045C000DBB25B00DBB20133DAB2BB79013BDBB2B9
:1045D000DB00DBB219461046FFF77EFF0023FB73BA
:1045E0000FE07B79A3F12002FB7B0833094912011C
:1045F0000A4413441B781846FFF757FFFB7B01332F
:10460000FB73FB7B072BECD900BF00BF1037BD4607
:1046100080BD00BFC0D4000880B584B000AF0346A1
:104620003A60FB710B46BB710023FB730EE0BA7955
:10463000FB7B1344D9B2FB7B3A6813441A78FB79AD
:104640001846FFF78FFFFB7B0133FB73FB7B3A6858
:1046500013441B78002BEAD100BF00BF1037BD46C2
:1046600080BD80B485B000AF786039600123FB6005
:1046700004E0FB687A6802FB03F3FB603B685A1EA8
:104680003A60002BF5D1FB6818461437BD4680BC54
:104690007047000090B585B000AF3A601A460346F7
:1046A000FB710B46BB7113467B710023FB7323E048
:1046B000BA79FB7B1344DCB27A79FB7BD31A013BDA
:1046C00019460A20FFF7CDFF02463B68B3FBF2F123
:1046D0000E4BA3FB0123DA0813469B0013445B0037
:1046E000CA1AD3B23033DAB2FB7921461846FFF743
:1046F00039FFFB7B0133FB73FA7B7B799A42D7D37B
:1047000000BF00BF1437BD4690BD00BFCDCCCCCCA0
:1047100080B584B000AF3A601A460346FB710B4681
:10472000BB7113467B714FF000013868FCF7DCFC6D
:104730000346002B06D0B979FB792B221846FFF7E8
:1047400011FF09E0B979FB792D221846FFF70AFF1E
:104750003B6883F000433B603868FCF7FFFC03468E
:10476000FB60F868FCF7B6FA034619463868FCF7B0
:10477000FFF903461D491846FCF704FB03464FF0BA
:104780007C511846FCF7F6F903461846FCF7E6FCA0
:104790000346BB60BB68632B05D9FB680133FB6034
:1047A000BB68643BBB60BB790133D9B27B79F879D4
:1047B000FA68FFF76FFFBA797B791344DBB20133F4
:1047C000D9B2FB792E221846FFF7CCFEBA797B7955
:1047D0001344DBB20233D9B2F8790223BA68FFF787
:1047E00059FF00BF1037BD4680BD00BF0000C84262
:1047F00080B582B000AF00237B600CE000233B60FB
:1048000002E03B6801333B603B68B3F57A7FF8D345
:104810007B6801337B607B68B3F57A7FEED3FFF76B
:10482000A9FDAE20FFF72AFED520FFF727FE802046
:10483000FFF724FEA820FFF721FE3F20FFF71EFE12
:10484000D320FFF71BFE0020FFF718FE4020FFF7E4
:1048500015FEA120FFF712FEC820FFF70FFEDA2099
:10486000FFF70CFE1220FFF709FE8120FFF706FE7E
:10487000CF20FFF703FED920FFF700FEF120FFF75E
:10488000FDFDDB20FFF7FAFD3020FFF7F7FDA42048
:10489000FFF7F4FDA620FFF7F1FD8D20FFF7EEFDF9
:1048A0001420FFF7EBFDAF20FFF7E8FDFFF737FE21
:1048B00000BF0837BD4680BD80B500AF0021044869
:1048C00002F0D8F90421024802F0D4F900BF80BDFB
:1048D0003003002080B584B000AF03460A46FB8059
:1048E0001346BB803C4B1B68DB6AFB813A4B1B6861
:1048F000DB6ABB81B7F90620B7F90E309A4201DDB9
:10490000FB89FB80B7F90620B7F90E305B429A426B
:1049100003DAFB895B429BB2FB80B7F90420B7F94D
:104920000C309A4201DDBB89BB80B7F90420B7F98E
:104930000C305B429A4203DABB895B429BB2BB807C
:10494000B7F90630002B0EDA00222021234800F0B0
:1049500011FC01221021214800F00CFCFB885B4275
:104960009BB2FB8009E0012220211C4800F002FCE0
:1049700000221021194800F0FDFB174B1B68B7F906
:1049800006205A63B7F90430002B10DA00224FF4E6
:104990008051124800F0EEFB01224FF400610F48F5
:1049A00000F0E8FBBB885B429BB2BB800BE00122BE
:1049B0004FF48051094800F0DDFB00224FF4006104
:1049C000064800F0D7FB044B1B68B7F904209A6334
:1049D00000BF1037BD4680BD3003002000080140F5
:1049E00080B500AF084B1B68074A43F01003136003
:1049F000032000F047F90F2000F008F8FCF7C8FF8B
:104A00000023184680BD00BF0020024080B582B060
:104A100000AF7860124B1A68124B1B7819464FF49E
:104A20007A73B3FBF1F3B2FBF3F3184600F05FF9CE
:104A30000346002B01D001230EE07B680F2B0AD820
:104A4000002279684FF0FF3000F027F9064A7B68B2
:104A50001360002300E0012318460837BD4680BDDF
:104A600000000020340000203000002080B400AF9F
:104A7000054B1B781A46054B1B681344034A136009
:104A800000BFBD4680BC7047340000206804002091
:104A900080B400AF024B1B681846BD4680BC70470F
:104AA0006804002080B584B000AF7860FFF7F0FFA5
:104AB000B8607B68FB60FB68B3F1FF3F05D00A4B31
:104AC0001B781A46FB681344FB6000BFFFF7E0FF4A
:104AD0000246BB68D31AFA689A42F7D800BF00BFF3
:104AE0001037BD4680BD00BF3400002080B485B0C3
:104AF00000AF78607B6803F00703FB600C4BDB685A
:104B0000BB60BA684FF6FF031340BB60FB681A0234
:104B1000BB68134343F0BF6343F40033BB60044AF4
:104B2000BB68D36000BF1437BD4680BC704700BF70
:104B300000ED00E080B400AF044BDB681B0A03F01B
:104B400007031846BD4680BC704700BF00ED00E07B
:104B500080B483B000AF0346FB7197F90730002B98
:104B60000BDBFB7903F01F02064997F907305B095D
:104B7000012000FA02F241F8232000BF0C37BD46A5
:104B800080BC704700E100E080B483B000AF034612
:104B90003960FB7197F90730002B0ADB3B68DAB20A
:104BA0000C4997F907301201D2B20B4483F8002365
:104BB0000AE03B68DAB20849FB7903F00F03043BD3
:104BC0001201D2B20B441A7600BF0C37BD4680BC2E
:104BD000704700BF00E100E000ED00E080B489B064
:104BE00000AFF860B9607A60FB6803F00703FB610F
:104BF000FB69C3F10703042B28BF0423BB61FB69D6
:104C00000433062B02D9FB69033B00E000237B61E0
:104C10004FF0FF32BB6902FA03F3DA43BB681A4074
:104C20007B699A404FF0FF317B6901FA03F3D94366
:104C30007B680B40134318462437BD4680BC704741
:104C400080B582B000AF78607B68013BB3F1807FB4
:104C500001D301230FE00A4A7B68013B53600F2117
:104C60004FF0FF30FFF790FF054B00229A60044B96
:104C700007221A60002318460837BD4680BD00BFD2
:104C800010E000E080B582B000AF78607868FFF790
:104C90002DFF00BF0837BD4680BD80B586B000AF90
:104CA0000346B9607A60FB7300237B61FFF742FF24
:104CB00078617A68B9687869FFF790FF024697F9DA
:104CC0000F3011461846FFF75FFF00BF1837BD468B
:104CD00080BD80B582B000AF0346FB7197F9073005
:104CE0001846FFF735FF00BF0837BD4680BD80B5C9
:104CF00082B000AF78607868FFF7A2FF03461846DD
:104D00000837BD4680BD80B485B000AF7860002311
:104D1000FB737B6893F82130DBB2022B08D07B68F1
:104D200004229A637B68002283F82020012320E07C
:104D30007B681B681A687B681B6822F00E021A6089
:104D40007B681B681A687B681B6822F001021A6086
:104D50007B681A6C7B68DB6B012101FA02F25A60F6
:104D60007B68012283F821207B68002283F82020C1
:104D7000FB7B18461437BD4680BC704780B584B0B5
:104D800000AF78600023FB737B6893F82130DBB2BF
:104D9000022B05D07B6804229A630123FB7351E048
:104DA0007B681B681A687B681B6822F00E021A6019
:104DB0007B681B681A687B681B6822F001021A6016
:104DC0007B681B68224A934229D07B681B68214A72
:104DD000934222D07B681B681F4A93421AD07B689B
:104DE0001B681E4A934212D07B681B681C4A934280
:104DF0000AD07B681B681B4A934202D14FF4801390
:104E00000EE04FF080730BE04FF4803308E04FF476
:104E1000805305E04FF4807302E0102300E001238B
:104E2000114A53607B68012283F821207B680022AD
:104E300083F820207B685B6B002B03D07B685B6B67
:104E400078689847FB7B18461037BD4680BD00BF89
:104E5000080002401C0002403000024044000240B2
:104E6000580002406C0002400000024080B48BB049
:104E700000AF7860396000237B6200233B6269E108
:104E800001227B6A02FA03F3FB613B681B68FA6943
:104E90001340BB61BA69FB699A4240F058813B6894
:104EA0005B689A4A93425ED0984A934275D8984A72
:104EB000934258D0964A93426FD8964A934252D022
:104EC000944A934269D8944A93424CD0924A93426E
:104ED00063D8924A934246D0904A93425DD8122BAF
:104EE0002AD8122B59D801A252F823F0674F000894
:104EF000414F0008534F0008954F00089B4F000892
:104F00009B4F00089B4F00089B4F00089B4F0008D9
:104F10009B4F00089B4F00089B4F00089B4F0008C9
:104F20009B4F00089B4F00089B4F00089B4F0008B9
:104F3000494F00085D4F0008794A934213D02CE096
:104F40003B68DB683B6229E03B68DB6804333B621B
:104F500024E03B68DB6808333B621FE03B68DB68AA
:104F60000C333B621AE03B689B68002B02D10423A0
:104F70003B6213E03B689B68012B05D108233B6231
:104F80007B68FA691A6109E008233B627B68FA6969
:104F90005A6103E000233B6200E000BFBB69FF2BC6
:104FA00001D87B6801E07B6804337B61BB69FF2B20
:104FB00002D87B6A9B0002E07B6A083B9B003B6156
:104FC0007B691A680F213B6901FA03F3DB431A403E
:104FD000396A3B6901FA03F31A437B691A603B683B
:104FE0005B6803F08053002B00F0B1804D4B9B6950
:104FF0004C4A43F0010393614A4B9B6903F0010360
:10500000BB60BB68484A7B6A9B08023352F8233076
:10501000FB607B6A03F003039B000F2202FA03F399
:10502000DB43FA681340FB607B68404A934213D02D
:105030007B683F4A93420DD07B683E4A934207D03B
:105040007B683D4A934201D1032306E0042304E038
:10505000022302E0012300E000237A6A02F0030247
:1050600092009340FA681343FB602F497B6A9B08C8
:105070000233FA6841F823203B685B6803F480132D
:10508000002B06D02D4B9A682C49BB6913438B60CB
:1050900006E02A4B9A68BB69DB43284913408B60C2
:1050A0003B685B6803F40013002B06D0234BDA68DF
:1050B0002249BB691343CB6006E0204BDA68BB6929
:1050C000DB431E491340CB603B685B6803F400334D
:1050D000002B06D0194B5A681849BB6913434B6023
:1050E00006E0164B5A68BB69DB43144913404B601A
:1050F0003B685B6803F48033002B21D00F4B1A68A8
:105100000E49BB6913430B6021E000BF0000321061
:1051100000003110000022100000211000001210C9
:105120000000111000100240000001400008014082
:10513000000C014000100140001401400004014037
:105140000B4B1A68BB69DB43094913400B607B6A50
:1051500001337B623B681A687B6A22FA03F3002BF7
:105160007FF48EAE00BF00BF2C37BD4680BC7047B9
:105170000004014080B483B000AF78600B467B80B0
:1051800013467B707B78002B03D07A887B681A618A
:1051900003E07B881A047B681A6100BF0C37BD46A8
:1051A00080BC704780B584B000AF78607B68002B0E
:1051B00001D101232BE17B6893F83D30DBB2002B5A
:1051C00006D17B68002283F83C207868FCF7D0F891
:1051D0007B68242283F83D207B681B681A687B6803
:1051E0001B6822F001021A607B681B681A687B68E2
:1051F0001B6842F400421A607B681B681A687B686F
:105200001B6822F400421A6001F0FCFBF8607B6826
:105210005B68814A934207D8FB68804A934294BFF7
:1052200001230023DBB206E0FB687D4A934294BF72
:1052300001230023DBB2002B01D00123E7E0FB6850
:10524000784AA2FB03239B0CBB607B681B685B68EE
:1052500023F03F017B681B68BA680A435A607B6889
:105260001B681B6A23F03F017B685B686A4A9342B4
:1052700002D8BB68013309E0BB684FF4967202FBA9
:1052800003F3694AA2FB03239B0901337A6812687E
:105290000B4313627B681B68DB6923F44F4222F0E7
:1052A000FF027B685B685C498B4219D8FB68591E1A
:1052B0007B685B685B00B1FBF3F3591C40F6FC7341
:1052C0000B40002B0AD0FB68591E7B685B685B00B3
:1052D000B1FBF3F30133C3F30B0351E004234FE0BD
:1052E0007B689B68002B11D1FB68581E7B6859684E
:1052F0000B465B000B44B0FBF3F30133C3F30B032A
:10530000002B0CBF01230023DBB212E0FB68581E08
:105310007B6859680B469B000B4499000B44B0FB1B
:10532000F3F30133C3F30B03002B0CBF0123002362
:10533000DBB2002B01D0012322E07B689B68002BAD
:105340000ED1FB68581E7B6859680B465B000B4406
:10535000B0FBF3F30133C3F30B0343F400430FE05B
:10536000FB68581E7B6859680B469B000B449900EC
:105370000B44B0FBF3F30133C3F30B0343F440439B
:10538000796809681343CB617B681B681B6823F04D
:10539000C0017B68DA697B681B6A1A437B681B68FB
:1053A0000A431A607B681B689B6823F4034323F05D
:1053B000FF037A6811697A68D26811437A681268C3
:1053C0000B4393607B681B68DB6823F0FF017B68FD
:1053D0005A697B689B691A437B681B680A43DA60D9
:1053E0007B681B681A687B681B6842F001021A60C0
:1053F0007B6800221A647B68202283F83D207B684A
:1054000000221A637B68002283F83E20002318469E
:105410001037BD4680BD00BFA08601007F841E00FE
:10542000FF083D0083DE1B43D34D621080B588B07A
:1054300002AFF860084611461A4603467B810B46C8
:105440003B811346FB80FFF723FB7861FB6893F8F1
:105450003D30DBB2202B40F0D9807B6900931923CB
:1054600001226D49F86800F0CDFC0346002B01D005
:105470000223CCE0FB6893F83C30012B01D10223DE
:10548000C5E0FB68012283F83C20FB681B681B68B1
:1054900003F00103012B07D0FB681B681A68FB6847
:1054A0001B6842F001021A60FB681B681A68FB68FF
:1054B0001B6822F400621A60FB68212283F83D20F9
:1054C000FB68402283F83E20FB6800221A64FB68D8
:1054D0003A6A5A62FB68BA8C5A85FB685B8D9AB24D
:1054E000FB681A85FB684D4ADA62F8883A8979893F
:1054F0007B690193BB6A00930346F86800F004FBE4
:105500000346002B52D0012381E07A69B96AF8681A
:1055100000F092FD0346002B0DD0FB681B6C042BA2
:1055200007D1FB681B681A68FB681B6842F40072AD
:105530001A6001236BE0FB685B6A1A78FB681B68E2
:105540001A61FB685B6A5A1CFB685A62FB681B8D18
:10555000013B9AB2FB681A85FB685B8D9BB2013BED
:105560009AB2FB685A85FB681B685B6903F0040309
:10557000042B1BD1FB681B8D002B17D0FB685B6ACB
:105580001A78FB681B681A61FB685B6A5A1CFB6827
:105590005A62FB681B8D013B9AB2FB681A85FB6857
:1055A0005B8D9BB2013B9AB2FB685A85FB681B8DF1
:1055B000002BAAD17A69B96AF86800F085FD034624
:1055C000002B0DD0FB681B6C042B07D1FB681B68FC
:1055D0001A68FB681B6842F400721A60012316E027
:1055E000FB681B681A68FB681B6842F400721A604B
:1055F000FB68202283F83D20FB68002283F83E20D0
:10560000FB68002283F83C20002300E002231846B8
:105610001837BD4680BD00BF020010000000FFFF2C
:1056200080B58CB002AFF860084611461A460346B2
:105630007B810B463B811346FB8000233B62FFF7D7
:1056400027FA7862FB6893F83D30DBB2202B40F0FC
:1056500050827B6A0093192301228249F86800F086
:10566000D1FB0346002B01D0022343E2FB6893F8F1
:105670003C30012B01D102233CE2FB68012283F87C
:105680003C20FB681B681B6803F00103012B07D05B
:10569000FB681B681A68FB681B6842F001021A600D
:1056A000FB681B681A68FB681B6822F400621A60BA
:1056B000FB68222283F83D20FB68402283F83E20CD
:1056C000FB6800221A64FB683A6B5A62FB68BA8E68
:1056D0005A85FB685B8D9AB2FB681A85FB68624A43
:1056E000DA62F8883A8979897B6A0193BB6B009307
:1056F0000346F86800F09EFA0346002B01D0012310
:10570000F8E1FB681B8D002B13D10023FB61FB68C4
:105710001B685B69FB61FB681B689B69FB61FB693C
:10572000FB681B681A68FB681B6842F400721A6009
:10573000CCE1FB681B8D012B1ED1FB681B681A682E
:10574000FB681B6822F480621A6072B600BF0023F7
:10575000BB61FB681B685B69BB61FB681B689B697D
:10576000BB61BB69FB681B681A68FB681B6842F475
:1057700000721A6062B635E0FB681B8D022B1ED1E9
:10578000FB681B681A68FB681B6842F400621A60B9
:1057900072B600BF00237B61FB681B685B697B619D
:1057A000FB681B689B697B617B69FB681B681A68E7
:1057B000FB681B6822F480621A6062B612E0FB6824
:1057C0001B681A68FB681B6842F480621A60002339
:1057D0003B61FB681B685B693B61FB681B689B69FD
:1057E0003B613B6972E1FB681B8D032B00F21F815B
:1057F000FB681B8D012B23D17A6AB96BF86800F026
:10580000ABFC0346002B01D0012373E1FB681B684E
:105810001A69FB685B6AD2B21A70FB685B6A5A1C31
:10582000FB685A62FB681B8D013B9AB2FB681A85C4
:10583000FB685B8D9BB2013B9AB2FB685A8545E1E0
:10584000FB681B8D022B52D17B6A0093BB6B00223D
:105850000649F86800F0D6FA0346002B08D0012369
:1058600048E100BF020010000000FFFF040001003B
:1058700072B600BFFB681B681A68FB681B6842F4BD
:1058800000721A60FB681B681A69FB685B6AD2B217
:105890001A70FB685B6A5A1CFB685A62FB681B8DB6
:1058A000013B9AB2FB681A85FB685B8D9BB2013B9A
:1058B0009AB2FB685A8562B600BFFB681B681A691A
:1058C000FB685B6AD2B21A70FB685B6A5A1CFB68A1
:1058D0005A62FB681B8D013B9AB2FB681A85FB6814
:1058E0005B8D9BB2013B9AB2FB685A85EEE07B6A06
:1058F0000093BB6B00228149F86800F083FA0346ED
:10590000002B01D00123F5E0FB681B681A68FB68D7
:105910001B6822F480621A6072B600BFFB681B68C5
:105920001A69FB685B6AD2B21A70FB685B6A5A1C20
:10593000FB685A62FB681B8D013B9AB2FB681A85B3
:10594000FB685B8D9BB2013B9AB2FB685A856C4B3E
:105950001B68DB086B4AA2FB03231A0A13469B0051
:105960001344DA00D31A3B623B6A013B3B623B6A59
:10597000002B18D1FB6800221A63FB68202283F8F1
:105980003D20FB68002283F83E20FB681B6C43F03F
:105990002002FB681A6462B600BFFB68002283F82D
:1059A0003C200123A6E0FB681B685B6903F004034D
:1059B000042BD9D1FB681B681A68FB681B6842F48A
:1059C00000721A60FB681B681A69FB685B6AD2B2D6
:1059D0001A70FB685B6A5A1CFB685A62FB681B8D75
:1059E000013B9AB2FB681A85FB685B8D9BB2013B59
:1059F0009AB2FB685A8562B600BFFB681B681A69D9
:105A0000FB685B6AD2B21A70FB685B6A5A1CFB685F
:105A10005A62FB681B8D013B9AB2FB681A85FB68D2
:105A20005B8D9BB2013B9AB2FB685A854EE07A6A65
:105A3000B96BF86800F090FB0346002B01D00123FE
:105A400058E0FB681B681A69FB685B6AD2B21A707F
:105A5000FB685B6A5A1CFB685A62FB681B8D013B42
:105A60009AB2FB681A85FB685B8D9BB2013B9AB2C8
:105A7000FB685A85FB681B685B6903F00403042B11
:105A800024D1FB681B8D032B07D1FB681B681A68A8
:105A9000FB681B6822F480621A60FB681B681A6945
:105AA000FB685B6AD2B21A70FB685B6A5A1CFB68BF
:105AB0005A62FB681B8D013B9AB2FB681A85FB6832
:105AC0005B8D9BB2013B9AB2FB685A85FB681B8DCC
:105AD000002B7FF488AEFB68202283F83D20FB6812
